:040000006F0000503D
:100004000000000000000000C8020000CA02000056
:1000140000000000FE0400000000000000000000DA
:10002400FE040000FE0400000000000000000000C8
:10003400FE04000000000000FE04000000000000B8
:10004400FE040000FE040000FE040000FE040000A4
:10005400FE040000FE040000FE040000FE04000094
:10006400FE040000FE040000FE040000FE04000084
:10007400FE040000FE040000FE040000FE04000074
:10008400FE040000FE040000FE040000FE04000064
:10009400FE040000FE040000FE040000FE04000054
:1000A400FE040000FE040000FE040000FE04000044
:1000B400FE040000FE040000FE040000FE04000034
:1000C400FE040000FE040000FE040000FE04000024
:1000D400FE040000FE040000FE040000FE04000014
:1000E400FE040000FE040000FE040000FE04000004
:1000F400FE040000FE040000FE040000FE040000F4
:1001040000000000FE040000FE040000FE040000E5
:10011400FE040000FE040000FE040000FE040000D3
:10012400FE040000FE040000FE040000FE040000C3
:10013400FE040000FE040000FE040000FE040000B3
:10014400FE040000FE040000FE040000FE040000A3
:10015400FE040000FE040000FE040000FE04000093
:10016400FE040000FE040000FE040000FE04000083
:10017400FE040000FE040000FE040000FE04000073
:10018400FE040000FE040000FE040000FE04000063
:10019400FE040000FE040000FE040000FE04000053
:1001A400000000000000000000000000000000004B
:0C01B4000000000000000000000000003F
:1001C000397101436EC619A0397141536AC866CAB4
:1001D00062CC5ECE19A0397101535AD056D252D496
:1001E0004ED64AD826DA22DC06DE3301614082820E
:1001F00041114AC026C222C406C68282B24D4101C4
:10020000024D924C224CB24B4101024B924A224A7F
:10021000B2494101024992442244B24041018280E4
:100220003D432A876373C3029377F700BDEFADE5C3
:10023000937606FF3D8ABA960CC34CC30CC74CC7D5
:100240004107E36BD7FE11E28280B306C3408A0602
:100250009702000096966780A6002307B700A306C2
:10026000B7002306B700A305B7002305B700A30412
:10027000B7002304B700A303B7002303B700A3020A
:10028000B7002302B700A301B7002301B700A30002
:10029000B7002300B700828093F5F50F9396850091
:1002A000D58D93960501D58D61B79396270097025A
:1002B000000096968682E78086FA9680C1171D8F89
:1002C0003E96E374C3F8A5B701A001A0EFF25FF278
:1002D00009458D2BF528EF00304371651305052086
:1002E000EF009048B707002083A5070837350000C6
:1002F0001305C5ADEF00D075492CAA853735000030
:100300001305C5AEEF00D074373500001305C5AF37
:10031000EF104005EF00902CEF00B02601A0B717BA
:1003200002409843B706FFF01367170098C3D843FD
:10033000758FD8C39843B706F7FEFD16758F98C31F
:100340009843B706FCFFFD16758F98C3D843B706D0
:1003500001FFFD16758FD8C39843B70600ECFD1654
:10036000758F98C33707FF0098C723A60702B746C3
:10037000024003A706801367070123A0E680D84345
:10038000B706C1FFFD16D8C3D843D8C3D8431367F7
:100390000740D8C3D843758FD8C3D843B7060001E8
:1003A000D8C39843558F98C3984393166700E3DDED
:1003B00006FED843B7160240719BD8C3D8431367D3
:1003C0002700D8C32147DC42B18BE39EE7FE828041
:1003D000B7160240D842B70700201146318B9387E9
:1003E00007086305C70021466308C70237177A006C
:1003F0001307072098C33717024058431183937699
:10040000F700370700201307070036971423984397
:100410003357D70098C38280D842D442416649837B
:100420003D8BF18E1306270015CF3D47630FE60283
:100430004147630FE602454781456313E6004146A5
:10044000A1E23747024003270780418B0DC73717CA
:100450007A00130707203306C70290C3C9DD98430B
:10046000058349BF81454946E1BF85453546C9BF3A
:1004700081453D46F1B737173D0013070790E1BFAF
:100480003715024058559316F700585563DF060498
:1004900011833D8B9306170037177A001307072047
:1004A0003357D70298C35455A182BD8A8DE2954631
:1004B0003307D702058398C3371702405857944330
:1004C0003D8B050733D7E60298C3984369B70545C6
:1004D0006394A600E546E9BF3D456396A600D14674
:1004E0003387E602C9BF8906E5BF3D8B9306170037
:1004F00037177A00130707203357D702F1B701A047
:10050000970100209381013817810020130181AFEA
:10051000173500001305C58A97050020938585AE21
:100520001386018263FAC5008322050023A05500CB
:1005300011059105E3EAC5FE13850182938581C308
:100540006377B500232005001105E36DB5FEFD427C
:10055000739002BCAD4273904280B76200009382F8
:10056000820873900230970200009382E2A993E21E
:10057000320073905230EFF09FDA970200009382BE
:1005800022D57390123473002030B7F7FF1F03A5F4
:10059000477082801C4141677917F98F1CC1232065
:1005A00005002322050023240500B7070240232667
:1005B0000500138787006317E500D8431367F7002A
:1005C000D8C382801387C7016316E500D843136739
:1005D000070FFDB7138707036318E500D843856647
:1005E000938606F0558FE9BF138747046315E5002E
:1005F000D843BD66C5BF138787056316E500D8439A
:10060000B7060F00C5B71387C7066316E500D843C2
:10061000B706F000C1BF138707086316E500D8438B
:10062000B706000FC1B7138787406319E50003A71A
:1006300047401367F70023A2E74082801387C74132
:100640006317E50003A747401367070FEDB79387CC
:100650000743631BF500B707024003A747408566C1
:10066000938606F0558FC1BFB707024013874744F2
:100670006316E50003A74740BD66EDB713878745BE
:100680006317E50003A74740B7060F00E1BF1387D4
:10069000C7466317E50003A74740B706F000D9B780
:1006A000138707486317E50003A74740B706000F05
:1006B00055BF138707496319E50003A7474D136723
:1006C000F70023AAE74C82801387074A6317E500E7
:1006D00003A7474D1367070FEDB71387074B631940
:1006E000E50003A7474D8566938606F0558FD1BF79
:1006F0001387074CE319E5FC03A7474DBD66FDB71B
:100700001C4161773D0794517D8F9C45D58F94495D
:10071000D58FD449D58F944DD58FD44DD58FD45105
:10072000D58F9455D58FD98F1CC1DC455CC19C41B8
:100730001CC5DC415CC582801C4189C593E717005C
:100740001CC1828041677917F98FDDBF4CC182805F
:1007500048414205418182809317350063D70700E5
:10076000B707024023A2A74082809317250063D7D2
:100770000700B707024023AAA74C8280B7070240B0
:10078000C8C382809C4513F7070113F8F70001C71F
:10079000D8413368E8008E2113F7F50F39C31841AB
:1007A0008146854E3D4F930F800293028004214E77
:1007B0003396DE00B3F8C500631116039398260044
:1007C00033131F011343F3FF3377E300B31818010A
:1007D00033E7E800639FF70550C98506E39AC6FD35
:1007E00018C11307F00F6375B70454412146854EB5
:1007F0003D4F930F800293028004414EB398CE0088
:1008000033F715016392E80213172600011733131B
:10081000EF001343F3FFB376D3003317E800D98E0C
:10082000639DF701232A15010506E319C6FD54C18E
:100830008280E39457FA10C94DB7E39757FE2328F7
:100840001501DDB723A0A1828280371702405C43E7
:100850009146B18B6385D700A1466382D706B7174F
:100860007A00938707201CC1371602405C42370785
:100870000020130707019183BD8BBA9794231C4175
:10088000B3D7D7005CC15442A1829D8ABA96942204
:10089000B3D6D70014C55442AD829D8A369718232B
:1008A000B3D7E7005CC55842398393763700138786
:1008B000418036971823B3D7E7021CC982805C4376
:1008C0005843C166C983758FB7F6FF1F83A6C670EC
:1008D000BD8B89071396160163480600C54601467D
:1008E0006392D702C94739A88946638FD702BD46AC
:1008F000638ED702C146638ED702C5460146639315
:10090000D700C1471DEF3747024003270780418BBF
:1009100005C737177A0013070720B307F7021CC172
:1009200021D61C41858381B701466DBF0546B54779
:10093000D1BF0146BD47F9B737173D0013070790F0
:10094000E9BFB7150240D8559316F700D85563DFB5
:10095000060411833D8B9306170037177A0013079F
:1009600007203357D70218C1D455A182BD8A8DE222
:1009700095463307D702058318C1371702405857E9
:1009800014413D8B050733D7E60218C1184171B7F2
:1009900085456394B600E546E9BFBD456396B6005C
:1009A000D1463387E602C9BF8906E5BF3D8B930672
:1009B000170037177A00130707203357D702F1B70C
:1009C00099C5371702405C4B5D8D48CB8280B717C5
:1009D0000240D84B1345F5FF798DC8CB828099C56D
:1009E000371702401C4F5D8D08CF8280B717024039
:1009F000984F1345F5FF798D88CF828099C53717B9
:100A000002405C4F5D8D48CF8280B7170240D84FBF
:100A10001345F5FF798DC8CF8280EFF26FFD16295F
:100A2000F577FD17F58FF621DA257971D58F1EA997
:100A30005625FD779387379FF58FD6212A842EC6BA
:100A4000D58F9625D58FB625D58F5EA55E29C20791
:100A5000C18393F7F7CFD98F5EA96808FD33B747F5
:100A6000014093870780B245631EF402A257654791
:100A7000B387E7029841930640060A07B3D7E70217
:100A800033D7D702B3F7D70212079207938727030A
:100A9000B3D7D702BD8BD98FC207C1831EA44561CE
:100AA0006FF04FF79257E1B791C55E250967D98F6F
:100AB0005EA582805A25F977FD17F98FD5BF5E298B
:100AC00001C6DD8D4EA9828093C5F5FFFD8DDDBF8A
:100AD00093F5F51F4EA182800A216D8D3335A0005C
:100AE0008280EFF2EFF001118545130500043937DC
:100AF00085454145ED3585477C828D473EC44C0098
:100B0000E147371501403EC6B53989477C824C0024
:100B100093078004371501403EC6AD31F167372495
:100B20000040938707203EC80C08B7070C00130548
:100B300004803ECC02CA231E0100C53537050240A1
:100B4000854513050548CD3E854513050480A93F1D
:100B500005616FF02FECEFF2AFE97971854509453A
:100B60008535370402401305C4462D34B7270040AD
:100B7000938747803EC2938741823EC4C1473EC6A9
:100B8000930700083ECC4C008D671305C4463ED445
:100B900002C802CA02CE02D002D202D6953693878C
:100BA00041833EC4930700403EC84C0093070002B7
:100BB000130504483ED202C6A13645616FF08FE5A9
:100BC000EFF20FE3370402402A891305C446AE84CE
:100BD000413615E5370500200905BD3E1305C4461D
:100BE0008145993E1304C44623262401A685228507
:100BF000B13E22858545893605456FF0AFE1014557
:100C0000EDBFEFF2EFDE2A843705024041111305F4
:100C100005482EC6353E13070040098F83D66182F2
:100C20004207418301456383E602B24593876182AF
:100C30000145138641839308F03F96236388E600BD
:100C400013180501135808016365B80041016FF0DE
:100C50006FDCB29694223308A4002300D8009623B8
:100C60008506C206C18263E5D80096A30505F1B7E3
:100C700023900700E5BFEFF2AFD78145B307B5007A
:100C80008387070081E72D3F6FF0CFD88505C20528
:100C9000C181EDB7EFF2CFD5370502401305054806
:100CA000453C930700403385A74003D76182420546
:100CB00041816367E500198D420541816FF08FD551
:100CC000998F3E95D5BFEFF2AFD223000500A30068
:100CD000050023010500A30105002A84653F11C911
:100CE000AA852285393F37350000A285130545C303
:100CF00085236FF02FD2EFF2AFCF896783D7C76D0F
:100D00006D712A842EC61306E00F8145130521015B
:100D1000FC80EFF0EFD0B246B73500002286938515
:100D2000C5C10808EF0020670808B13775DD130555
:100D3000401F012451616FF0EFCDEFF26FCB896757
:100D400083D7C76D6D712A842EC61306E00F8145C7
:100D500013052101FC80EFF0AFCC03A78180B246E0
:100D6000B73500002286938505BF0808EF00A06212
:100D70000808113775DD1305401F652A51616FF0B2
:100D80006FC9EFF2EFC6896783D7C76D017113068C
:100D9000E00F8145130521102310F110EFF04FC82B
:100DA00003A6C180B7350000938545BD0A85E523BC
:100DB0000A85D13575DD1305803EA52A0802213745
:100DC00037340000C13D01C50802F53DE5BF1305FC
:100DD000803E85221305C4BE7123EDB7EFF24FC1EB
:100DE000896783D7C76D130101C01306E03F8145B2
:100DF000130521007C80EFF0AFC2B13BDD31372518
:100E0000004005469305000C130505804D39373425
:100E100000008D45130544B1653365FD130540069B
:100E2000092A373400009145130584B1513B13055D
:100E300040060122B7340000138504B22D3D6DDD5C
:100E400013054006FD20B7340000138504B3253593
:100E50006DDD13054006F1289145130584B18D33EE
:100E600013054006F920373500009945130545B4B0
:100E7000813B130540067528373400001305C4B4C0
:100E8000DD3B6DDD130540066D2037340000130592
:100E9000C4B5D53335C5373400001305C4B6E13BBE
:100EA0006DDD130540067120B735000037350000B1
:100EB0009385C5B7130585B83D3D1305803E95283C
:100EC0000A85113513054006AD20B73500003735CA
:100ED0000000938545B9130505BA85351305401FF4
:100EE000892837340000130584BA71336DDD13058A
:100EF000803E81200A85C13B130101406FF08FB114
:100F00001305401F3D2061B7B707002083A70708DE
:100F100037177A0013070720B3D7E70293F7F70FC5
:100F20002385F1821307803EB387E7022394F18281
:100F30008280B7F700E0D8438146799BD8C303D7B6
:100F400081823306A70290CBD4CB98431367070165
:100F500098C398431367170298C3D843058B75DF6E
:100F60009843799B98C38280EFF28FA801112A845D
:100F7000854537050200593485451145EFF03FA6F8
:100F800091477C82371501408D473EC44C00E147B4
:100F9000130505803EC6EFF0EFFE22C8374400403F
:100FA000B70708000C08130504403ECC02CA231EF4
:100FB0000100A534854513050440FD3405616FF03B
:100FC0006FA5EFF24FA1B7440040AE8932890144CA
:100FD00093840440634524014A856FF00FA3930571
:100FE00000042685D53C65DDB3878900838507002D
:100FF00026850504C205C181E13CE9BF1387018153
:101000001C43938681C33E95636BD500B786002051
:101010009386068063E5A60008C33E858280FD575F
:10102000EDBFB3C7A5008D8B3307C50081E78D47A2
:1010300063EDC700AA87637EE508942185078505CF
:10104000A38FD7FEE3EBE7FE828093763500AA8775
:1010500089CA942185078505A38FD7FE93F63700AB
:10106000C5BF9376C7FF138606FE63F0C70683A34A
:10107000050083A2450083AF850003AFC50083AEA2
:10108000050103AE450103A3850183A8C50193852E
:10109000450223A0770003A8C5FF23A2570023A47D
:1010A000F70123A6E70123A8D70123AAC70123AC90
:1010B000670023AE17019387470223AE07FF75B77A
:1010C00090419107910523AEC7FEE3EBD7FEE3E61F
:1010D000E7F68280DDC183A7C5FF411122C406C6A1
:1010E00026C21384C5FF63D307003E94AA84EF0091
:1010F000F0279387C1829C4381EF2322040023A61B
:1011000081822244B2402685924441016F003026FC
:10111000637EF40014403307D4006396E7009843DD
:10112000DC43369718C05CC0D9BFBA87D84319C30F
:10113000E37DE4FE94433386D700631F86001040AE
:10114000B29694C33386D700E31DC7FA10435843C1
:10115000B29694C3D8C375B76375C400B1479CC039
:101160004DB71040B306C4006316D700144358436C
:10117000B29614C058C0C0C369B78280011126CA94
:1011800093843500F19806CE22CC4AC84EC6A104FD
:10119000B14763F3F404B14463E2B4042A89EF0075
:1011A000F01C9387C18298433A8439E09387018386
:1011B0009C4391E781454A855D2A23A8A182A685A3
:1011C0004A857522FD5963193507B1472320F90077
:1011D0004A85EF00D01929A0E3D004FCB1471CC117
:1011E0000145F2406244D2444249B24905618280DD
:1011F0001C40858F63CF0702AD4663F6F6001CC026
:101200003E9404C031A05C406313870223A6F182A0
:101210004A85EF00D0151305B40093074400619987
:101220003307F5405DDF3A94898F1CC05DBF5CC316
:10123000C5B72287404095BF130435007198E3027B
:1012400085FCB305A4404A851D22E31C35FBB5BFD0
:1012500039713EDA2ED232D436D63AD842DC46DE66
:101260009387418122CC804326CA06CEAA8409C432
:101270001C4C99E322858D2D0C4454102686228522
:1012800036C6EF00B04FF2406244D2442161828002
:10129000011126CA4AC806CE22CC4EC652C4AA8420
:1012A0002E8901C51C4D91E381259C4C804499E316
:1012B00026851D2D972700009387C7A8631BF4027E
:1012C000C0405E24A18BB1C71C48A1C7FD59294A63
:1012D0001C4483450900FD17B1E91CC463DD070602
:1012E0002286A94526854D22FD576308F50229452A
:1012F00035A0972700009387E7A66314F400804485
:10130000C9B7972700009387E7A1E31CF4FAC0440C
:101310004DBFA2852685B12C55D97D55F24062443A
:10132000D2444249B249224A056182801CC405095F
:1013300063D70700184C63CAE700638845011C4067
:101340001387170018C08CA361B7228626852D2A23
:10135000E31035F9D9B71C401387170018C0294787
:1013600098A371B793874181AA85884315B7411126
:1013700022C42A842E8523AA01C206C64131FD5704
:101380006317F500938741C39C4391C31CC0B240CF
:1013900022444101828035713ECBB707008093C75C
:1013A000F7FF3ECE3EC8C1779387872032C536C748
:1013B0003AC942CD46CF3ECA938741812AC42ACC3E
:1013C000884334012E862C0086DE36C2EF00100ED4
:1013D000A24723800700F6500D618280411122C48C
:1013E0002E848395E50006C6EF10601C6349050056
:1013F0007C48AA977CC8B2402244410182805E2486
:101400007D777D17F98F5EA4FDB7DE25011122CC13
:1014100026CA4AC84EC606CE93F70710AA842E8461
:101420003289B68991C78395E500894601461D2515
:101430005E247D777D17F98F5EA48315E4006244F6
:10144000F240CE864A86B24942492685D244056199
:10145000D5A8411122C42E848395E50006C6DD2B54
:10146000FD575A24631AF500FD77FD17F98F5EA426
:10147000B2402244410182808567D98F5EA468C84A
:10148000C5BF8395E500EDA2011122CC26CA4AC84A
:1014900006CE4EC6AA842E89328401C51C4D91E326
:1014A000A121972700009387E7896317F406C040BE
:1014B0001C4C1CC45E24A18BC1C31C48B5CF1C4866
:1014C00008409379F90F1379F90F1D8D5C48634635
:1014D000F500A2852685DD2C25E51C440505FD17B4
:1014E0001CC41C401387170018C0238037015C48B8
:1014F0006388A7005E24858B81CBA9476316F9001A
:10150000A2852685E1240DEDF24062444A85D2444D
:101510004249B249056182809727000093878784FA
:101520006314F400804469B7971700009387877F9E
:10153000E310F4F8C044ADBFA28526851D2841D133
:101540007D59D9B7411122C42A842E85B2853686A9
:1015500023AA01C206C6EFF0DFA6FD576317F50008
:10156000938741C39C4391C31CC0B24022444101B4
:10157000828041119387418126C2844322C44AC09C
:1015800006C62A892E8489C49C4C99E32685A92EF7
:10159000971700009387077B631BF402C040031773
:1015A000C40093170701C18393F68700B5EA93F649
:1015B000070195EEA5472320F900136707045AA4F5
:1015C0007D55B240224492440249410182809717DE
:1015D0000000938727796314F4008044C9B79717F4
:1015E000000093872774E31CF4FAC0444DBF918B2D
:1015F00085C74C5891C9930744046385F5004A8513
:10160000EFF05FAD232A04025E242322040093F747
:10161000B7FD5EA41C481CC05E2493E787005EA44F
:101620001C4899EB5E241307002093F70728638575
:10163000E700A2854A8555215E2413F717001DC3D4
:101640005C4823240400B307F0401CCC1C4801452F
:10165000ADFB8317C40013F7070825D793E70704EA
:101660005EA4B9BF898B014791E3584818C4F9BFFC
:10167000411122C42A842E8523AA01C206C6EF1076
:101680000002FD576317F500938741C39C4391C344
:101690001CC0B240224441018280DE25011122CCCF
:1016A00026CA06CE4AC84EC613F78700AA842E84DF
:1016B00061EFD841634DE000B841634AE000014565
:1016C000F2406244D2444249B24905618280585492
:1016D0007DD703A904009396370123A0040063DC9F
:1016E000060670485E24918B99C75C401D8E5C583D
:1016F00099C33C401D8E5C540C50814626858297D0
:10170000FD575A24631DF5009440F54763E9D70659
:10171000B70740208507B3D7D700858BADC31C48DA
:10172000232204001CC09317370163D80700FD571C
:101730006314F5009C4091E368C84C5823A0240131
:10174000BDDD930744046385F5002685EFF09F987F
:10175000232A0402ADB70C50014685462685029720
:10176000FD572A86E310F5F89C40ADDF7547638589
:10177000E70059476393E70423A0240189B713675F
:1017800007045AA47D552DBF83A90501E38909F2F9
:1017900003A905008D8B23A0350133093941014789
:1017A00091E3D84918C4E35C20F11C540C50CA865C
:1017B0004E86268582976347A0005E2493E7070440
:1017C0005EA4C9B7AA993309A940F1BF9C49B9CF12
:1017D000011122CC06CE2A8411C51C4D81E72EC6EC
:1017E0002122B245971700009387C755639BF500E8
:1017F0004C408397C50095C722856244F24005613D
:1018000069BD971700009387E7556394F5000C4472
:10181000CDB7971700009387E750E39CF5FC4C4445
:10182000C9BFF24062440145056182800145828062
:10183000411122C406C62A844EA572A523200500A4
:101840002322050023240500232205062328050062
:10185000232A0500232C0500214681451305C505D3
:10186000EFE01F9C97070000938787B75CD097072E
:1018700000009387C7B91CD4970700009387A7BDC2
:101880005CD497070000938707C000D01CD8B240F3
:1018900022444101828097050000938565F3B1A23F
:1018A000411126C2130680069384F5FFB384C40257
:1018B0004AC02E8922C406C693854407EFF01F8CC8
:1018C0002A8401CD2320050023222501310508C4E7
:1018D000138684068145EFE0BF942285B2402244FE
:1018E00092440249410182801C4DADE3411106C67C
:1018F00022C497070000938747FA1CD593878181FC
:101900009C4323240504232605042328050463148B
:10191000F50085471CCD2A841D2848C0228505284E
:1019200008C422852D2048C4484001469145093706
:1019300008440546A545ED3D48440946C945CD3D09
:1019400085471CCCB24022444101828082804111F3
:101950009387818126C284434AC006C69C4C22C418
:101960002A8999E326854937938484048044DC409E
:10197000FD1763D607009C40B9CF8440C5BF03174D
:10198000C40039E7C1778507232204062320040019
:1019900023220400232404005CC423280400232AF7
:1019A0000400232C0400214681451305C405EFE003
:1019B0003F87232A0402232C040223240404232621
:1019C00004042285B24022449244024941018280AB
:1019D0001304840671BF91454A85D93588C051FDED
:1019E000B1472320F9000144E9BF797122D44AD0DC
:1019F00052CC56CA5AC85EC606D626D24ECE2A8ABF
:101A0000AE8A130485040149054BFD5B09ECB25015
:101A100022544A8592540259F249624AD24A424BB0
:101A2000B24B45618280044483294400FD1963D48C
:101A300009000040E1BFDE24637BFB008397E400E4
:101A400063877701A6855285829A3369A9009384BA
:101A50008406E9BF411122C42A842E85B2853686C8
:101A600023AA01C206C6EF00D045FD576317F50053
:101A7000938741C39C4391C31CC0B240224441019F
:101A800082801971A6DAAE848395E500A2DC86DE39
:101A9000328463DB0500DE2423A0060093F70708E9
:101AA00085E7930700401DA0300836C6EF00F032EE
:101AB000B246E34205FE7247BD67F98F7977BA9760
:101AC00093B717009CC2F1BF930700041CC0F650E7
:101AD0006654D654014509618280DE25011122CC6D
:101AE00006CE26CA4AC8898B2E8489CF93077404F0
:101AF0001CC01CC885475CC8F2406244D2444249BD
:101B00000561828074003000AA84A53FA2452A891D
:101B10002685EFF0AFE619E98317C40013F7072015
:101B200061FFF19B93E727005EA4C9B79707000008
:101B30009387A7D69CD45E2408C008C893E70708FB
:101B40005EA4A2475CC8B24781CF8315E400268516
:101B5000EF00502B11C55E24F19B93E717005EA4A4
:101B60005E243369F9002316240179B782808280CC
:101B700081E5B2856FF08FE0011122CC06CE26CA36
:101B80004AC84EC6328401EEEFF0CFD40149F2408C
:101B900062444A85D2444249B24905618280AE849A
:101BA000AA89EF00902E2689E37385FEA2854E85D3
:101BB000EFF0CFDC2A8961DDA6852286EFF06FC6C3
:101BC000A6854E85EFF00FD1D9B701114AC803A9F8
:101BD000850022CC52C45AC006CE26CA4EC656C272
:101BE0002E84328B368A63E92609DE2513F70748EF
:101BF00051C304408C495848AA8AB389B4408D44E3
:101C0000B384E4020947B3C4E402138716004E9775
:101C100063F3E400BA8493F70740BDCFA6855685E9
:101C2000EFF0CFD52A891DE1B14723A0FA005E2449
:101C30007D5593E707045EA4F2406244D2444249D2
:101C4000B249224A924A024B056182800C484E8674
:101C5000EFF02FBD5E2493F7F7B793E707085EA474
:101C60002328240144C84E99B384344123202401FD
:101C700004C4528963732A01528908404A86DA856E
:101C8000EF00501C1C440145B38727411CC41C4075
:101C90003E99232024014DB726865685D13D2A89B9
:101CA00061F10C485685EFF0EFC2BDBFDE257171C2
:101CB00026D34AD14ECF06D722D552CD56CB5AC9BC
:101CC0005EC762C566C393F70708AA892E89B284E6
:101CD000B9C39C49A9E39305000436C6EFF00FCAC7
:101CE0002320A9002328A900B24615E1B14723A06B
:101CF000F9007D55BA502A549A540A59FA496A4A49
:101D0000DA4A4A4BBA4B2A4C9A4C4D61828093076F
:101D10000004232AF90093070002A30CF1029307A1
:101D2000000302DA230DF10236CE930B5002971A0C
:101D30000000938A2A05054C294B26841C2099C350
:101D400063987709B30C9440638D0C00E686268671
:101D5000CA854E859D3DFD57630BF518D256E69614
:101D600036DA1C2063850718FD579304140002D04F
:101D700002D63ED202D4A301010682DC8C20154695
:101D80005685EF00B00A13841400825721E513F73B
:101D9000070109C713070002A301E10613F7870033
:101DA00009C71307B002A301E10694201307A0029C
:101DB000638AE602B2572684814625461820930599
:101DC0001400130707FD6372E6068DC63ED61DA0FC
:101DD0000504ADB7330555413315AC00C98F3ED06E
:101DE000A28469BF724793064700184336CE634703
:101DF00007023AD618209307E002631DF704183053
:101E00009307A002631BF702F247090413874700F8
:101E10009C433ACE63C107023ED22DA83307E0406F
:101E200093E727003AD63ED0F1B7B38767038546DC
:101E30002E84BA9761B7FD57C5B7050402D2814613
:101E400081472546182093051400130707FD637684
:101E5000E606F9F20C200D4617150000130505F3F0
:101E6000EF00C07C11CD97170000938727F21D8DDE
:101E700093070004B397A700025505045D8D2AD08F
:101E80000C20194617150000130585F09304140063
:101E9000230CB102EF00807925C597E7FFFF9387F8
:101EA000671695E70257F2471377071009CF910796
:101EB0003ECED257D2973EDA49B5B38767038546FF
:101EC0002E84BA9741B79D07E19BA107D5B7780843
:101ED000970600009386A6CF4A860C104E85970081
:101EE0000000E7000000FD572A8AE314F5FC835741
:101EF000C9007D5593F70704E39E07DE5255DDBB0D
:101F0000780897060000938686CC4A860C104E858A
:101F1000FD2ED1BF1C46FD171CC663DA0700184E04
:101F200063C5E700A9476394F5006FF0EFD51C4245
:101F30002E851387170018C28CA38280011122CC32
:101F400026CA4AC84EC652C406CE2A89AE893284F1
:101F5000B304D6007D5A63149400014501A80C20F7
:101F60004E864A85453F0504E31745FFF24062442B
:101F7000D2444249B249224A05618280357122CD5C
:101F800026CB4AC94EC706CF52C556C35AC1DEDE5C
:101F9000E2DCE6DAAA89AE843289368409C51C4DB2
:101FA00099E3EFF07F94971700009387A7D9639781
:101FB000F40C83A44900DE24A18BFDC39C48EDC32F
:101FC00093070002A304F1029307000302D2230542
:101FD000F10222C6930B5002971A0000938A8ADA04
:101FE000054C294B4A841C2099C3639E770DB30C82
:101FF0002441638D0C00E6864A86A6854E853D3FCA
:10200000FD57630FF51C9256E69636D21C20638965
:10201000071CFD571309140002C802CE3ECA02CCA9
:10202000A309010482D48345090015465685FD2B7A
:1020300013041900C24751E913F7070109C7130731
:102040000002A309E10413F7870009C71307B002D0
:10205000A309E104834609001307A002638FE60683
:10206000F2474A8481462546182093051400130739
:1020700007FD6377E60AB5CA3ECE85A8971700002C
:10208000938747CE6395F40083A489002DB79717F3
:102090000000938727C9E390F4F283A4C90021BF0D
:1020A000A6854E85EFF0EFCC01DD7D55FA406A4400
:1020B000DA444A49BA492A4A9A4A0A4BF65B665CAC
:1020C000D65C0D618280050439BF33055541331557
:1020D000AC00C98F3EC82289B9B732479306470082
:1020E000184336C6634707023ACE18209307E0022A
:1020F000631DF70418309307A002631BF702B24771
:102100000904138747009C433AC663C107023ECACD
:102110002DA83307E04093E727003ACE3EC8F1B739
:10212000B387670385462E84BA973DBFFD57C5B771
:10213000050402CA814681472546182093051400EC
:10214000130707FD6374E606F9F20C200D46171518
:1021500000001305A5C3D92911CD97170000938757
:10216000E7C21D8D93070004B397A70042450504FD
:102170005D8D2AC80C20194617150000130545C1AE
:10218000130914002304B102552135C197E7FFFF5D
:10219000938747E795E74247B2471377071009CF80
:1021A00091073EC69257D2973ED22DBDB3876703A3
:1021B00085462E84BA9751B79D07E19BA107D5B7F5
:1021C0007800970600009386A6D726860C084E85D1
:1021D00097000000E7000000FD572A8AE314F5FC91
:1021E000DE2493F70704E39207EC1255C1B578009B
:1021F000970600009386C6D426860C084E85012AD1
:10220000E1BF797156CA9C49BA8A984522D426D230
:102210004ECE52CC06D64AD05AC85EC6AA892E8463
:10222000B284368A63D3E700BA879CC0034734047C
:1022300019C385079CC01C4093F7070281C79C40C7
:1022400089079CC00329040013796900631A0900F7
:10225000130B9401FD5B5C449840998F634CF90427
:102260001C408346340493F70702B336D000A5EB35
:1022700013063404D2854E85829AFD576303F50414
:102280001C4011469840998B544481446397C70081
:10229000B384E64063D3040081441C44184863546B
:1022A000F700998FBE94014969047D5B639824050A
:1022B000014509A885465A86D2854E85829A631EB5
:1022C00075017D55B250225492540259F249624A26
:1022D000D24A424BB24B456182800509ADBF3307FC
:1022E000D40013060003A301C704034754049387D3
:1022F0001600A2978906A381E7049DBF8546228622
:10230000D2854E85829AE30E65FB050945B7797142
:1023100022D426D24AD04ECE06D652CC56CA5AC85D
:10232000B689942D930790063289AA842E84138649
:102330003504638DF60263E2D70693078005638553
:10234000F61863EDD700638D062093073004638E83
:10235000F60A930A24042301D404C9A09307300683
:102360006385F60A93074006E395F6FE1C40084392
:1023700093F6070893054500C5C61C410CC363D8F6
:1023800007001307D002B307F040A301E404971637
:102390000000938666A0294765A89307000763811C
:1023A000F61663E5D7029307E0066388F6189307ED
:1023B000F006E390F6FA0C401C4313F80508138569
:1023C00047006307080608C39C4385A89307500786
:1023D000E383F6FE930780076388F61293073007BE
:1023E000E399F6F61C43D04181459386470014C318
:1023F00083AA070056851D2C01C53305554148C0E9
:102400005C401CC8A301040461A81C43930A240473
:10241000938647009C4314C32301F4048547D5B732
:1024200093F607041C410CC3B9DAC207C18781BF08
:1024300093F5050408C3C9D99E231307F0066386E4
:10244000E60E97160000938626952947A3010404FB
:102450004C400CC463C5050008406D9908C099E361
:10246000B28A89CDB28AB3F5E702FD1AB6958C21FE
:102470002380BA00B3D5E70263FFE70AA147631ED2
:10248000F7001C40858B91CB58401C4863C7E70080
:1024900093070003A38FFAFEFD1A3306564110C8B6
:1024A0004E87CA867000A2852685A13B7D5A631D92
:1024B000450B7D55B250225492540259F249624A5A
:1024C000D24A424B45618280A382D5049716000010
:1024D0009386868C0C40084313F805081C411105AF
:1024E000630D080208C313F7150001C793E5050241
:1024F0000CC04147A1FF0C4093F5F5FD0CC0B9B7E6
:102500009C4193E707029CC193078007A302F40450
:10251000971600009386868975BF13F8050408C3D3
:10252000E30308FCC207C1837DBF971600009386B2
:10253000A686214721BFAE873DB794411C43CC49B5
:1025400013F80608138547006306080008C39C4378
:102550008CC339A008C393F606049C43F5DA8EA316
:1025600023280400B28A2DBF14485686CA852685C2
:102570008299E30045F51C40898B8DE7B2474844BA
:10258000E35AF5F23E853DB785465686CA852685CF
:102590008299E30065F3050A5C443247998FE3456D
:1025A000FAFEE9BF014A930A94017D5BF5B7411138
:1025B00022C42A842E85B285368623AA01C206C685
:1025C0003922FD576317F500938741C39C4391C39C
:1025D0001CC0B240224441018280411122C42A849D
:1025E0002E85B28523AA01C206C6C120FD576317F6
:1025F000F500938741C39C4391C31CC0B240224461
:1026000041018280411122C42A842E8523AA01C25D
:1026100006C65520FD576317F500938741C39C43B9
:1026200091C31CC0B24022444101828093F5F50F52
:102630002A966314C500014582801C21E38EB7FEF3
:102640000505C5BF63F1A504B386C500637DD5024A
:102650009345F6FF8147FD176393F500828033872A
:10266000F600034807003387C7002A9723000701B5
:10267000DDB73387F50014233307F500850714A36E
:10268000E319F6FE82808147E5BF83A7C5FF138566
:10269000C7FF63D50700AA959C413E9582809307AA
:1026A000800523AAF1C27D5582809307800523AA65
:1026B000F1C27D5582809307800523AAF1C20145AE
:1026C00082809307800523AAF1C27D5582809307FB
:1026D000800523AAF1C27D55828000000000000021
:1026E00000000000000000000000000000000000EA
:1026F00000000000000000000000000000000000DA
:1027000000000000000000000000000000000000C9
:1027100000000000000000000000000000000000B9
:102AD0000000000000000000000000005379737443
:102AE000656D436C6B3A25640D0A0000436869709C
:102AF00049443A253038780D0A000000546869735B
:102B0000206973207072696E7466206578616D70DB
:102B10006C650D002B2B2B0041540D0A00000000AA
:102B200041542B434950434C4F53450D0A0000007C
:102B300041542B4D515454434C45414E3D300D0AA8
:102B400000000000415445310D0A000041542B4360
:102B5000574D4F44453D310D0A00000041542B4371
:102B600057444843503D312C310D0A0041542B430A
:102B700049504D55583D300D0A000000313538316F
:102B800033393931373732005265646D69204B343F
:102B9000300000003034524C465833654335000055
:102BA000443030330000000041542B4D5154544305
:102BB0004F4E4E3D302C226D717474732E686563D8
:102BC0006C6F7564732E636F6D222C313838332C23
:102BD000300D0A0041542B4D5154545355423D3051
:102BE0002C222573222C300D0A000000310D00002C
:102BF00041542B4D515454555345524346473D3053
:102C00002C312C222573222C222573222C22257371
:102C1000222C302C302C22220D0A000041542B4350
:102C2000574A41503D222573222C222573220D0A3A
:102C30000000000025730D0A000000002473797362
:102C40002F3034524C4658336543352F443030339F
:102C50002F7468696E672F70726F70657274792F48
:102C600073657400247379732F3034524C46583393
:102C70006543352F443030332F7468696E672F7089
:102C8000726F70657274792F706F7374000000003A
:102C900076657273696F6E3D323031382D31302D6B
:102CA0003331267265733D70726F6475637473257A
:102CB00032463034524C46583365433525324664EB
:102CC0006576696365732532464430303326657412
:102CD0003D31373239343534373734266D657468D1
:102CE0006F643D736861323536267369676E3D7473
:102CF0004B6B4D33623570594D7867425A35447A83
:102D000051703078495450677A33664B495A727221
:102D10004F6C544239412532424E524125334400D2
:102D200000000000000000000000000000000000A3
:102D30000000000000000000000000000000000093
:102D40000000000000000000000000000000000083
:102D50000000000000000000000000000000000073
:102D60000000000000000000000000000000000063
:102D70000000000000000000000000000000000053
:102D8000232D302B20000000686C4C0065666745E1
:102D90004647000030313233343536373839414216
:102DA0004344454600000000303132333435363775
:0C2DB00038396162636465660000000051
:102DBC0000000000000000000102030406070809DF
:102DCC0000000000010203040102030406070809C5
:102DDC0000000000402D0000602D0000202D0000A0
:102DEC0000000000000000000000000000000000D7
:102DFC0000000000000000000000000000000000C7
:102E0C0000000000000000000000000000000000B6
:102E1C0000000000000000000000000000000000A6
:102E2C000000000000000000000000000000000096
:102E3C000044950802040608902C00003C2C00006D
:102E4C00B80400202000002020000020000000001A
:00000001FF
